:020000040800F2
:10000000800C0020D5020008892A00086F2600080D
:10001000852A0008A11E00081B43000800000000FC
:100020000000000000000000000000004D3B000840
:10003000C11E0008000000009D3400086D3D00084E
:1000400041430008EF020008EF020008753A00087B
:10005000EF020008EF020008C51E0008EF020008CA
:100060000D1F0008551F0008951F0008EF0200082B
:10007000EF020008EF020008EF020008EF0200089C
:10008000EF020008EF020008EF020008EF0200088C
:10009000EF020008EF020008EF020008EF0200087C
:1000A000EF020008D93D0008EF020008EF02000847
:1000B000093E0008393E0008EF020008EF02000880
:1000C000EF020008EF020008EF020008EF0200084C
:1000D000EF020008054000086D400008D540000808
:1000E000EF0200089D360008EF020008EF0200084A
:1000F000F53E0008EF020008EF020008EF020008DA
:10010000EF020008EF020008EF020008EF0200080B
:10011000EF020008EF0200086D3E0008A13E000853
:10012000EF020008EF020008EF020008EF020008EB
:10013000EF020008EF020008EF020008EF020008DB
:10014000EF020008EF020008EF020008EF020008CB
:10015000EF020008EF020008EF020008EF020008BB
:10016000EF020008EF020008EF020008EF020008AB
:10017000EF020008EF020008EF020008EF0200089B
:10018000EF020008EF02000800F002F800F092F819
:100190000AA090E8000C82448344AAF10107DA45E2
:1001A00001D100F087F8AFF2090EBAE80F0013F0A2
:1001B000010F18BFFB1A43F001031847506F0000EE
:1001C000706F0000103A24BF78C878C1FAD852077F
:1001D00024BF30C830C144BF04680C6070470000C1
:1001E0000023002400250026103A28BF78C1FBD840
:1001F000520728BF30C148BF0B6070476E2900F01E
:100200005A83702900F08781662905F032846529B8
:1002100005F02F84672905F02C84612905F02B84D3
:1002200003681B0A28BF41F08001692900F0F880AB
:10023000642900F0F580752900F0F2806F2900F044
:100240005284782900F05381E92900F0ED83E429F4
:1002500000F0EA83F52900F0E783EF2900F04F84EE
:10026000F82900F052810368DB0928BF41F08001C2
:10027000632900F05C83732900F06183E32901F0B6
:100280008B80F32901F09080002070471FB505F0A6
:10029000EBFB01F043F904000020002105F0B8FB5E
:1002A000401C60600020002105F0C8FBE0601FBD1D
:1002B00010B510BD01F00DF91146FFF7E7FF04F08E
:1002C00097FE01F0EFF903B4FFF7F2FF03BC04F06F
:1002D00082F800000948804709480047FEE7FEE72A
:1002E000FEE7FEE7FEE7FEE7FEE7FEE7FEE7FEE7E6
:1002F00004480549054A064B70470000713D000857
:100300008901000880060020800C00208008002061
:1003100080080020704700001CB50C46064B7B444B
:1003200069460090204600F0E0FA04460020694645
:1003300000F0EEFA20461CBDEF0500000FB40449A2
:1003400010B503AA029800F0FFFA10BC5DF814FB88
:100350007C0000200FB41CB5084B06AA7B446946FC
:100360000090059800F0C1FA04460020694600F0AC
:10037000CFFA20461CBC5DF814FB0000B10500005C
:1003800070B5044685690068C10601D5302600E0D5
:100390002026C00707D070BDD4E901213046904720
:1003A000206A401C20626D1EF6D570BD70B50446F3
:1003B00085690078C00707D170BDD4E901212020EC
:1003C0009047206A401C20626D1EF6D570BD70B546
:1003D0000C460546012A05D02878800600D5EA6932
:1003E000002302E0012305E05B1C934202D2E05CA3
:1003F0000028F9D1A869E618C01AA861286A18442B
:1004000028622846FFF7BCFF04E0D5E9012114F873
:10041000010B9047B442F8D32846FFF7C7FF70BDE1
:100420002DE9F0410646002410687529314616A5CD
:1004300010D000F0D5F9002802DA404213A507E0F9
:1004400031688A0701D512A502E0490704D511A534
:10045000012401E000F0CDF900210A2206F1240771
:1004600009E0B0FBF2FCB0FBF2F302FB1C00303001
:1004700078541846491C0028F3D123462A463046B2
:10048000BDE8F04100F0BEB9000000002D00000002
:100490002B00000020000000F0B40D460188090583
:1004A00002D5214C7C4402E01F4C7C440E340021D8
:1004B00000F1240608E002F00F071209E75D42EAA6
:1004C00003721B097754491C52EA0307F3D10278DF
:1004D0000023120704D5702D06D009B10223113470
:1004E0002246F0BC00F08EB901231034F8E770B555
:1004F00004460D462146106800F07BF90246294665
:100500002046BDE870400023C6E7D21D22F0070355
:10051000D3E90023C0E70368126843F020030360B7
:100520000823C3610023B7E71A6B00002DE9F05FD1
:10053000894604464FF0000ADFF874B1FB44C0F866
:1005400020A02046E1688847002874D0252806D0DE
:10055000D4E901219047206A401C2062F1E700267F
:100560005F462046E16888472028054607DB312D95
:1005700005D2781910F8200C08B10643F1E7B0074E
:1005800001D526F00406C4F81CA00027C4F818A062
:100590002A2D09D0284603F017FF38B304EB87084B
:1005A000303DC8F8185019E059F8041B204604EBF8
:1005B00087029161E1688847012F054618D1E069FB
:1005C000002820DA26F020061DE0D8F8180000EBFD
:1005D000800005EB40003038C8F818002046E1687C
:1005E0008847054603F0F0FE0028EED1012F0AD01F
:1005F0002E2D08D12046E16888477F1C0546022F32
:1006000046F02006C4DBA069002803DA404246F029
:100610000106A061F00701D026F010066C2D0BD06A
:10062000682D09D04C2D39D06A2D35D0742D35D098
:100630007A2D33D016E038E0E1682F46204688470F
:10064000B842054609D16C2F26D04FF48060E1688E
:10065000064320468847054604E06C2F1AD04FF425
:10066000807006430DB3A5F14100192802D820354A
:1006700046F400664A462946204626604E46FFF765
:10068000BDFD80B101280BD0F61D26F0070000F15A
:10069000080956E74020E4E78020D8E70020D6E7A5
:1006A00006F104094DE7284652E7206ABDE8F09FAD
:1006B000AA6A000070B5064600F08EF80468054688
:1006C00030460A22002100F025FA2C6070BD00009F
:1006D000014A00F057BA00008000002030B50546FE
:1006E0000B462A4613F8014B12F8010B08B1A04241
:1006F000F8D01CB1002802D06D1CF1E7284630BDAF
:100700004FF0000200B5134694469646203922BFAA
:10071000A0E80C50A0E80C50B1F12001BFF4F7AFF5
:10072000090728BFA0E80C5048BF0CC05DF804EBD7
:10073000890028BF40F8042B08BF704748BF20F845
:10074000022B11F0804F18BF00F8012B70470000FA
:100750004FF0013C50F8042B51F8043B9A4221D150
:10076000A2EB0C03934313EACC1317D150F8042BDC
:1007700051F8043B9A4215D1A2EB0C03934313EAC0
:10078000CC130BD150F8042B51F8043B9A4209D1F9
:10079000A2EB0C03934313EACC13DBD04FF0000021
:1007A000704700BFD01A01BAB1FA81F101F0180107
:1007B00022FA01F0CB40C1F12001DBB2C0B2C01A75
:1007C0002CFA01F3D11A914311EAC311E6D1704713
:1007D00070477047704770470048704720060020F8
:1007E00009684A0501D540B27047C905FCD500B279
:1007F000704709684A0501D5C0B27047C905FCD5E4
:1008000080B270472DE9F0470D469946924604465E
:1008100000F124080168880604D5E06921F0100180
:10082000216000E00120A84201DD471B00E0002715
:10083000A1697A1902EB0900081AA0612078C006A4
:1008400002D42046FFF79CFD002608E0D4E90121F0
:100850001AF806009047206A401C761C20624E451C
:10086000F4DB2078C0060AD52046FFF789FD06E0B4
:10087000D4E9012130209047206A401C2062381EB4
:10088000A7F10107F4DC07E0D4E9012118F805001D
:100890009047206A401C2062281EA5F10105F3DC68
:1008A0002046FFF783FD2078000602D50220BDE830
:1008B000F0870120FBE711680268006A530501D543
:1008C00008700AE0D30501D5088006E0130603D5B9
:1008D000C217C1E9000200E0086001207047000073
:1008E00001694A1C02610878704700B58FB0CDE9F4
:1008F00001310021059105497944CDE903101146E4
:100900006846FFF713FE0FB000BD0000E5FFFFFFD4
:100910000A6802F8010B0A60704710B5436913B109
:10092000AFF3008001E0FFF752FD012010BD127807
:1009300000F124010A7000224A700122EDE71168DB
:100940004FF0FF32E9E70000074B70B50D467B44DE
:10095000FFF7CBFF0446284600F079FD10B14FF0B9
:10096000FF3070BD204670BDB74200002DE9FF5F2B
:1009700015468A460446DFF8AC80F8440027D8E9DB
:1009800000103E46CDE9001010E03AF816106A4615
:1009900002A800F060FD411C07D02178890603D52C
:1009A000E269391891420DD80744761C20788006F8
:1009B00002D5E069B84205DDAE42E6DB3AF8160042
:1009C0000028E2D1A069C01BA0612046FFF7D8FC37
:1009D000D8E90010CDE90010002017E03AF818100F
:1009E0006A4602A800F037FDB0F1FF3F81460BD008
:1009F00000250DF1080B05E0D4E901211BF80500E5
:100A000090476D1C4D45F7D308F10100B042804678
:100A1000E4DB206A384420622046FFF7C7FCBDE8CB
:100A2000FF9F00007E6600002DE9F0418046D21D48
:100A300022F007020025D2E90002F52915A614D0FC
:100A4000011E72F1000106DA0023D0EB030063EB14
:100A5000020211A608E0D8F800108B0701D50FA6F6
:100A600002E0490701D50EA601251146002408F130
:100A7000240704E000F0B4F830323A55641C50EA20
:100A80000102F7D12B46324621464046BDE8F041EF
:100A9000FFF7B8BE000000002D0000002B00000092
:100AA0002000000030B4002100F1240408E002F02E
:100AB0000705D208303542EA4372DB086554491C09
:100AC00052EA0305F3D10468002310A2250707D5D5
:100AD000A40600D421B1C46901230DA2641EC4611F
:100AE00030BCFFF78FBE10B5044621461068FFF7F3
:100AF00080FE02462046BDE810400023D2E7D21D0A
:100B000022F00701D1E90023CCE70000000000003B
:100B1000300000002DE9F04791460F46804604461C
:100B2000002614F8015B2DB100F052F80068405D1A
:100B3000C007F6D12B2D02D02D2D18D0641E4A46A9
:100B40003946204600F034FC27B13968A14201D172
:100B5000C7F800804FF0020471050BD54042002811
:100B600003DDFFF739FE0460A007BDE8F08746F417
:100B70008066E4E70028F8DAFFF72EFE04606FF0E5
:100B80000040F2E72DE9F04115460E46040002D17F
:100B90002C6804B90BA4204600F08DFC0444207896
:100BA00070B127463146384600F075FC0444207881
:100BB00010B1002004F8010B38462C60BDE8F0812C
:100BC0000027F9E7000000000048704720060020D9
:100BD00010B500F0A3FC001D10BD00BF354E000095
:100BE00030B5B0F10A024FEA900E71F100034EEAFF
:100BF000817EB0EB0E0061EB91014FEA101E4EEAD0
:100C0000017E10EB0E0041EB11114FEA102E4EEA5F
:100C1000016E10EB0E0041EB11214FEA104E4EEA2F
:100C2000014E10EB0E0041EB1141401841F1000163
:100C30004FEAD00040EA41704FEAD10110EB800545
:100C40004FEA810444EA907444EB01046D1944EBCB
:100C50000404521BA3414FF0000348BF0A3200D5E1
:100C600030BD401C41F1000130BD70472DE9FF4F00
:100C70000C461E464FF0FF378BB0D2E90001DDF87D
:100C800060800A908A46C1F30A5505B93D460021A5
:100C900008464FF00000BAF1000F00F4400005DAFA
:100CA00000EB80004FF4400101EA50004FEA9059F8
:100CB000B9F1010F00DDB9460A9850EA4A000ED09A
:100CC00044F61050A5F2FF3545432F14B8F1000F3C
:100CD0001ED07542291E1EDDC9F100021CE0B8F1CC
:100CE000010F4FF0000001D0302103E0F24305E096
:100CF0002154401CB042FBDB30460022002121542D
:100D00000B99C1F80880C1E900200FB0BDE8F08F51
:100D1000BD1B6D1CDEE74A4600DA694206A800F0FA
:100D20004FFC06AB93E8070003AB83E8070050468F
:100D30000A9900F0C0FC8DE80700A0F500501F38AC
:100D400000900398002D0ADD42F21F014A46084434
:100D5000002303A90390684600F029FF09E0A0F5ED
:100D600000504A461F38002303A90390684600F04C
:100D700033FF8DE807000004000C03D04FF0FF3074
:100D8000410800E01046B8F1000F03D000220092A5
:100D900015461EE0751E05D4FFF722FF303262555E
:100DA0006D1EF9D5B3460122084302D000227F1CF4
:100DB00004E02078302801D100227F1E002A099704
:100DC00084D01DE0112D07DAFFF70AFF303262559B
:100DD0006D1C50EA0102F5D1084302D00098C8B159
:100DE0000EE00021681E05E0235C625C635422541F
:100DF000401E491C8142F7DBAB46A81B401E0990F0
:100E0000002004F80B000B98099AC0F80880C0E98C
:100E1000002B7AE711264FF0000857E72DE9F04F35
:100E200088460446D21D22F0070191B0D1E90001A5
:100E3000CDE90A0103F0B0FA02460B98C00F01D0C9
:100E40002D2007E02068810701D52B2002E020211A
:100E500001EAC000032A099001D0072A05DB0346F6
:100E60004146204600F05EFB0BE12078800601D56C
:100E7000E06900E00620B8F1650F814606D0B8F1C0
:100E8000660F18D0B8F1670F70D131E00020B9F1CA
:100E9000110F009001DB112301E009F101030AAAFF
:100EA00001A90CA8FFF7E2FEDDE90C70002609F1AC
:100EB0000105834647E001204B4600904FF0004774
:100EC0000AAA01A90CA8FFF7D1FEDDE90DB00C9923
:100ED0005D46002610B909F101000D18B9EB0500B7
:100EE00003D4C0F1FF3609F10105A5EB09002BE0A1
:100EF000B9F1010F01DA4FF001090020B9F1110F2A
:100F00000090484601DD112300E003460AAA01A92A
:100F10000CA8FFF7ABFEDDE90C704D4600268346BA
:100F2000207800070AD4AB4500DA5D4601A8012D00
:100F300004DD411911F8011C302907D04F4502DAB0
:100F400017F1040F04DA012082460FE06D1EEEE770
:100F5000002F02DCED1B3E4403E0781CA84200DDBC
:100F60007D1CB81B00F1010A4FF0004720780007F4
:100F700003D4AA4501DB4FF0FF3A0021B7F1004F3F
:100F80000DF143088DF8431024D002202B23002FAD
:100F900001DA7F422D230A21021EA0F1010000DCAC
:100FA0005FB197FBF1FC97FBF1F201FB1C7C17464C
:100FB0000CF1300C08F801CDEEE7A8F10100037048
:100FC0002188090501D5452100E06521A0F101082E
:100FD00000F8011C09980FA9A1EB0807FF1D00B13B
:100FE0000120411901EBEA70A1693844081A401E3A
:100FF000A0612078C00602D42046FFF7C1F9099805
:1010000028B1D4E901219047206A401C2062207851
:10101000C00622D52046FFF7B3F91EE0002E04DB00
:10102000B34502DD01A8805D00E03020D4E9012154
:101030009047206A401C2062761CAAF101005FEAFA
:10104000000A0AD100F06AFAC0680168405CD4E97D
:1010500001219047206A401C2062281EA5F101054D
:10106000DCDC07E0D4E9012118F8010B9047206A85
:10107000401C2062381EA7F10107F3DC2046FFF771
:1010800095F9032011B041E62DE9F04F04460D46D5
:10109000D21D22F0070089B0D0E9009748463946B2
:1010A00003F07AF90246F80F01D02D2307E02068FB
:1010B000810701D52B2302E0202101EAC0038DF82E
:1010C00020300BB1012000E00020032A824601D02D
:1010D000072A04DB2946204600F024FA3FE1207865
:1010E000800601D40D2500E0E569C7F30A560D2DF1
:1010F00049DA00214FEA175B08464FF00000002F45
:1011000000F4400007DA00EB80004FF4400100EBF0
:10111000D07001EA60008115012901DD4FF0FF3137
:1011200000224FEA850CBCF1180F06D31346ACF130
:1011300018004FF08052C24003E04FF4801323FAAE
:101140000CF30CF10C0CBCF1200F04D3ACF1200C0F
:1011500009FA0CF001E007FA0CF000294FF0004802
:1011600001DD18B90FE00ED140450CD319EB02098F
:101170005F4121B9404502D19F4329EA0209BBEBF7
:10118000175F00D0761C2088000502D57B48784484
:1011900002E07A487844193808AA302302F80A3065
:1011A000037C0AF10101002E0AF1020A53546A4637
:1011B00002DC4FF0300101E04FF031014FF0010847
:1011C0008DF8001002D0A6F2FF3603E059EA47017D
:1011D00000D06B4E002D02DC2178090704D54FF0BA
:1011E00002082E218DF80110C44600210BE0C7F340
:1011F00003433F01C35C491C6D1E02F808300529FA
:1012000008F1010801DA002DF1DC00210CE000EB0F
:101210001973491C1B786D1E082902F808304FEA23
:10122000091908F1010801DA002DF0DC21688B06AC
:1012300002D516E0A8F10108E04505DD02EB080340
:1012400013F8013C302BF5D0B8F1000F09DD02EBAB
:10125000080313F8013C2E2B03D1090701D4A8F190
:101260000108002D05DD3E2102F808106D1E08F171
:101270000108407C002E02F8080008F1010804DA99
:101280002D20764202F8080002E02B2002F8080028
:101290000A214FF47A70864208F101080BDB96FBB5
:1012A000F0F3303302F8083096FBF0F308F1010850
:1012B00000FB136601E0642E0CDB642096FBF0F368
:1012C000303302F8083096FBF0F308F1010800FB18
:1012D000136601E00A2E06DB96FBF1F0303002F8CF
:1012E000080008F1010896FBF1F001FB10603030B6
:1012F00002F80800A16908F1010808EB050202EBF9
:101300000A00081AA0612078C00602D42046FFF720
:1013100037F8216A08AE01EB0A00206204E0D4E944
:10132000012116F8010B9047BAF1010AF7D2207893
:10133000C00602D52046FFF723F86E4609E016F8EE
:10134000010B3E280FD0D4E901219047206A401CB0
:101350002062B8F10108F2D22046FFF727F809B061
:101360000320BDE8F08F206A2844206203E0D4E91E
:101370000121302090476D1EEBD3F8E7855E000019
:1013800002FCFFFF10B5436913B1AFF3008001E029
:10139000FFF7ECFA012010BD128800F124018284CD
:1013A0000022C2840122EDE711684FF0FF32E9E725
:1013B0002DE9F05F824615468B4600270AF10104AD
:1013C000B9460078302801D09DB113E014F8010B24
:1013D0000127782803D0582801D045B10AE00DB183
:1013E000102D07D1002714F8010B102502E0082565
:1013F00000E00A250026B0460EE005FB080005FBCC
:1014000006F101271FFA80F801EB1046B6F5803F80
:1014100000D3B94614F8010B294600F0C3F80028A0
:10142000EBDABBF1000F05D00FB1641E00E05446AB
:10143000CBF80040B9F1000F06D0FFF7CDF902213B
:101440000160C81EBDE8F09F48EA0640FAE7007B4D
:1014500000F08000704770B516460C460546FFF751
:10146000B7FB036893F80101012806D0FF2C0FD8C1
:10147000185D68B101202C7070BDD3F807013246A9
:10148000214603F2071303442846BDE8704018477D
:101490004FF0FF3070BD30B503461D781DB10A46D0
:1014A00003E0AC4201D1181A30BD12F8014B002CF8
:1014B000F7D15B1CF1E730B503461D783DB10A4614
:1014C00012F8014B1CB1AC42FAD15B1CF5E7181ABB
:1014D00030BD7546FFF778FBAE46050069465346BA
:1014E00020F00700854618B020B5FEF701FFBDE8E3
:1014F00020404FF000064FF000074FF000084FF07B
:10150000000B21F00701AC46ACE8C009ACE8C0090B
:10151000ACE8C009ACE8C0098D4670470048704788
:10152000400600202DE9F0411F46044603260168CD
:10153000072A01F4006004DB08B116A505E016A532
:1015400003E008B115A500E015A521F0100020600A
:10155000A069C01EA0610FB1401EA0612046FEF729
:101560000FFF4FB1D4E9012138469047206A401C53
:101570002062C01C206206E0206AFAE7D4E901215B
:1015800015F8010B9047761EF8D22046FEF70EFFA5
:10159000BDE8F0814E414E006E616E00494E46003E
:1015A000696E66003A2800D2303820F02002412AC5
:1015B00001D3A2F13700884201D34FF0FF307047CA
:1015C0002DE9F047814616468AB0354878440DC863
:1015D0008DE80D0032487844801C03AC0DC884E8C7
:1015E0000D0041F69B300844372190FBF1F290FB4F
:1015F000F1F5A5F1800501FB12041B3C02D5644204
:10160000012000E00020DFF898A080460027FA447F
:10161000AAF1BE0A0EE0E0070AD03246684607EBA0
:10162000470101230AEB810100F0D6FA8DE807009B
:1016300064107F1C002CEED1194F7F44AE3F19E09F
:10164000E80715D007EB04100DF1180A90E80E001A
:101650008AE80E00C068F04201D19819089032461D
:10166000012306A903A800F0B7FA03AB83E807003B
:101670006D10641C002DE3D14FF001033246694622
:10168000B8F1000F03A802D000F091FA01E000F0D9
:10169000A3FAC9E90001C9F808200AB0BDE8F0873B
:1016A000D85A000010B50446AFF300802046BDE8CC
:1016B0001040FEF708BE5FEA400C08BF91F0000F33
:1016C0004FEA8C234FEAC12243EA51514FEA1C50A2
:1016D00018BF00F5F0404FEA300018BF41F000415C
:1016E0005FEA6C5C00F02980BCF1FF3F08BF40F06E
:1016F00080407047130C06BF12044FF0100C4FF0DF
:10170000000C130E04BF12020CF1080C130F04BFDF
:1017100012010CF1040C930F04BF92000CF1020CA7
:10172000D30F04BF52000CF1010C11464FF0000220
:10173000A0F11F00A0EB0C00704711F0004F08BF94
:10174000704731F000413FF4D5AF0B0C06BF0904E0
:101750004FF0100C4FF0000C0B0E04BF09020CF1FF
:10176000080C0B0F04BF09010CF1040C8B0F04BF14
:1017700089000CF1020CCB0F04BF49000CF1010CE5
:10178000CCF12003A0EB0C0022FA03F302FA0CF2D6
:1017900041EA030100F10100704720F07F4C80EA2C
:1017A000030023F07F47ACEB070303F57C5300F005
:1017B000004003F1FF032DE980494FEA154B09B4BE
:1017C0004FEA144325EA0B4E24EA03480FF204269D
:1017D00006EB132749083E785FEA320203FB0667EF
:1017E000C7F5000707FB06F64FEA54374FEAD6461F
:1017F00006F1020607FB066CCCF1005C4FEA1C47C1
:101800002CEA074C07FB06F40CFB06F504EB154627
:101810004FEA961634BF00204FF000404FEAD13710
:1018200006FB07FC4FEA1C4C0CFB0BF7D21B03FB1F
:101830000CF761EB07010CFB0EF7B0EB074072EB06
:1018400017420CFB08F734BFA2EB0742B2EB07428A
:1018500061EB17414FEA0C444FEA910706FB07FC86
:101860004FEA1C4C0CFB0BF7B0EBC74072EB573246
:1018700003FB0CF734BFA2EBC742B2EBC74261EBEC
:1018800057310CFB0EF7B0EBC70072EB57720CFB35
:1018900008F734BFA2EBC702B2EBC70261EB577186
:1018A000039F4FEA816141EA921104EBCC044FEAB5
:1018B000D1374FEA826206FB07FC42EA90124FEAF8
:1018C00080604FEA1C4C0CFB0BF7D21B03FB0CF7A0
:1018D00061EB07010CFB0EF7B0EB074072EB174210
:1018E0000CFB08F734BFA2EB0742B2EB074261EBF7
:1018F00017414FEA8C554FEA910704EB9C2406FBF5
:1019000007FC4FEA1C4C0CFB0BF7B0EBC74072EB2B
:10191000573203FB0CF734BFA2EBC742B2EBC7420E
:1019200061EB57310CFB0EF7B0EBC70072EB57724F
:101930000CFB08F734BFA2EBC702B2EBC70261EBA6
:10194000577115EB4C254FEA816141EA92114FEA3C
:1019500082624FEAD13742EA901206FB07FC44F15B
:1019600000044FEA80604FEA1C4C0CFB0BF7D21BC3
:1019700003FB0CF761EB07010CFB0EF7B0EB074024
:1019800072EB17420CFB08F734BFA2EB0742B2EB35
:10199000074261EB174115EB1C154FEA813141EA13
:1019A00092414FEA823242EA90424FEA80304FEA57
:1019B0000C7644F1000448EA03434EEA0B484FF02A
:1019C000000EB2EB080C71EB030724BF62463946E8
:1019D0004EEB0E0E4FF0000B0018524149414BEBFD
:1019E0000B0BB2EB080C71EB03077BF1000B24BF70
:1019F000624639464EEB0E0E4FF0000B0018524176
:101A000049414BEB0B0BB2EB080C71EB03077BF17D
:101A1000000B24BF624639464EEB0E0E51EA020718
:101A200018BF46F0010616EB0E7655F1000254F190
:101A3000000103D5BDE88901BDE80088BDE8890142
:101A4000BDE80048B619524141EB0101A3F1010381
:101A5000704780807F7E7D7C7B7A7978777676751B
:101A60007473727171706F6E6E6D6C6C6B6A6A6993
:101A70006868676666656464636362616160605F2D
:101A80005F5E5E5D5D5C5C5B5B5A5A5959585857A6
:101A9000575656555555545453535252525151500E
:101AA00050504F4F4F4E4E4D4D4D4C4C4C4B4B4B61
:101AB0004A4A4A49494948484847474747464646A7
:101AC00045454544444444434343434242424241E2
:101AD0004141002B9C4630D477002BD01CB54FEAF7
:101AE000370703B44FF010004FF01001BAF1000FA8
:101AF00006D0BCF1000FDCBF40F0080040F0080148
:101B00004FF000000FBCBDE810400BF1010BBBF122
:101B1000010F08BF5FEA170722BF12F1010211F19E
:101B200001014FF0004143F1000300F0004043EA9F
:101B300000007047F9D35708D0E746EA064613F18C
:101B4000400F4FEA16461FDD13F1200FDFBF16438B
:101B50000A46002120335B42BED0C3F1200746EA8B
:101B6000064602FA07F74FEA164646EA0706C3F1A9
:101B7000200722FA03F201FA07F721FA03F14FF0E6
:101B8000000342EA0702A7E746EA020646EA0646DB
:101B90004FEA164646EA0106BCBF46EA0646360C40
:101BA0004FF000034FF000024FF0000194E72DE9E1
:101BB000804C9A46934670B491E8380007C831EAE1
:101BC000400C48BF34EA430C03D5FFF7E6FDFFF7AE
:101BD00080FFF0BCBDE8008C2DE9804C9A4693460E
:101BE00070B491E8380007C810F0804F08BF13F0B8
:101BF000804F03D100F005F8FFF76BFFF0BCBDE8A4
:101C0000008C20F07F4780EA030023F07F4C07EB35
:101C10000C03A3F57C5300F00040A3F1FE0392F007
:101C2000000F00F0B38095F0000F00F077802DE9F1
:101C300001494FEA11404FEA144621EA004800FBEF
:101C400006FC24EA064708FB06F607FB08F800FB3B
:101C500007F718EB06484CEB164C4FEA124B18EB03
:101C600007484FEA15464CEB174022EA0B4E0BFB98
:101C700006FC25EA06470EFB06F607FB0EFE0BFBED
:101C800007F71EEB064E4CEB164C4FF000061EEB12
:101C9000074E4CEB174B18EB0B0840F1000018EB0C
:101CA0000E0B58EB000840F100008F1A4FF00001B6
:101CB0003CBFC943661B14BFB5EB040C00213CBFFD
:101CC000C943F61B4FEA17444EEA8E0E27EA044535
:101CD0004FEA1C4704FB07622CEA074C05FB07F799
:101CE0000CFB05F604FB0CFC16EB074642EB174217
:101CF00016EB0C4642EB1C421BEB060658EB0202AD
:101D0000414146EA9E0601D5BDE80189B619524116
:101D100041EB0101A3F10103BDE801894FEA14453C
:101D20004FEA114724EA054621EA074C05FB07F470
:101D300006FB07F70CFB06F105FB0CFC11EB07415A
:101D400044EB17444FEA124711EB0C4144EB1C449F
:101D500022EA074C05FB07F206FB07F70CFB06F629
:101D600005FB0CFC16EB074642EB174216EB0C4644
:101D700042EB1C456A1854F1000148BF7047B61980
:101D8000524141EB0101A3F10103704795F0000FAF
:101D900037D04FEA11424FEA144721EA024624EABB
:101DA000074C02FB07F106FB07F70CFB06F402FBEE
:101DB0000CFC14EB074441EB17414FEA154714EBB9
:101DC0000C4441EB1C4125EA074C02FB07F506FBDE
:101DD00007F70CFB06F602FB0CFC16EB074645EB7F
:101DE000174516EB0C4645EB1C42121951F1000148
:101DF00048BF7047B619524141EB0101A3F10103FD
:101E000070474FEA14454FEA114724EA054621EA94
:101E1000074C05FB07F106FB07F70CFB06F24FF03A
:101E2000000605FB0CFC12EB074241EB174112EBDD
:101E30000C4251EB1C4148BF7047921841EB010125
:101E4000A3F10103704710B5142001F065FE0446AC
:101E500004F0030018B90321142001F0DAFE10BDCC
:101E60001CB50121202001F01BFB4FF48070009075
:101E700001208DF8040000208DF8060001208DF867
:101E8000070003208DF805006946034800F07DFB3C
:101E90000020024908601CBD00140240A08242429A
:101EA00000BFFEE770B505460C460026284601F047
:101EB00033FE064626EA0401284602F055FA70BDB4
:101EC0007047000010B5012000F08AF8A0B1012091
:101ED00000F080F80F2002F013FE0848006858B99F
:101EE00001200749087007490860322002F008FE07
:101EF00000200549C1F8A00210BD000000024042C8
:101F000028000020A08242420080424210B50420F6
:101F100000F066F8A8B1042000F05CF80F2002F091
:101F2000EFFD0848006860B90220074908700120E9
:101F300006490860322002F0E3FD00200449C1F8A0
:101F4000A00210BD0802424228000020A0824242A6
:101F50000080424210B5082000F042F890B10820FD
:101F600000F038F80F2002F0CBFD0748006848B9B0
:101F7000012006490860322002F0C2FD0020044919
:101F8000C1F8A00210BD00000C024242A0824242F1
:101F90000080424210B5102000F022F890B11020CD
:101FA00000F018F80F2002F0ABFD0748006848B9B0
:101FB000012006490860322002F0A2FD00200449F9
:101FC000C1F8A00210BD000010024242A0824242AD
:101FD000008042420149086070470000143C014003
:101FE00001460020034A12680A400AB1012000E0BD
:101FF00000207047143C0140002123498279002AC7
:102000003AD00A46126803689A430B461A600A1DC2
:10201000126803689A430B1D1A60027911440A681A
:1020200003681A430A60184A0832126803689A4320
:10203000154B08331A601A1D126803689A43124B35
:102040000C331A604279102A0ED11A1F12680368E5
:102050001A430D4B08331A601A1D126803681A439D
:10206000094B0C331A600DE00749427911440A68A4
:1020700003681A430A6005E0027911440A6803689C
:102080009A430A6070470000003C01400EB50121F0
:10209000880301F025FA0021084601F059FD0221CC
:1020A000042001F055FD0321042001F051FD04211D
:1020B000084601F04DFD1D20019000208DF808001C
:1020C0000C208DF8090001208DF80A0001A8FFF707
:1020D00093FF06208DF8000000208DF801008DF898
:1020E000020001208DF80300684600F0CFFC0820B4
:1020F0008DF80000684600F0C9FC09208DF800004A
:10210000684600F0C3FC0A208DF80000684600F025
:10211000BDFC0EBD014621293ED2DFE801F01113BE
:102120001517191B1D1F212325273D3D3D3D292B3B
:102130003D3D3D2D3D3D2F313335373D3D393B0054
:1021400017A02BE017A029E01CA027E022A025E083
:1021500028A023E033A021E03EA01FE047481DE077
:1021600047A01BE04AA019E04EA017E052A000BF14
:102170005EA013E062A011E067A00FE073A00DE085
:1021800077A00BE07AA009E07EA007E084A005E03C
:102190008AA003E08DA001E090A000BF00BF7047BF
:1021A0004F4B0000E695B0E68DAEE58C85E68EA53A
:1021B000E694B6E99499E8AFAF000000E4BCA0E66D
:1021C000849FE599A8E4B88AE6B2A1E69C89E689ED
:1021D0008BE68C8700000000E5BD95E585A5E68CC3
:1021E00087E7BAB9E59BBEE5838FE5A4B1E8B4A55E
:1021F00000000000E68C87E7BAB9E59BBEE5838F57
:10220000E5A4AAE5B9B2E38081E5A4AAE6B7A1E80E
:10221000808CE7949FE4B88DE68890E789B9E5BEA5
:1022200081000000E68C87E7BAB9E59BBEE5838FA5
:10223000E5A4AAE6B9BFE38081E5A4AAE7B38AE8EA
:10224000808CE7949FE4B88DE68890E789B9E5BE75
:1022500081000000E68C87E7BAB9E59BBEE5838F75
:10226000E5A4AAE4B9B1E8808CE7949FE4B88DE6D0
:102270008890E789B9E5BE8100000000C0700008C1
:10228000E68C87E7BAB9E4B88DE58CB9E9858D00AD
:10229000E6B2A1E6909CE7B4A2E588B0E68C87E7B9
:1022A000BAB90000E789B9E5BE81E59088E5B9B61D
:1022B000E5A4B1E8B4A50000E8AEBFE997AEE68CAE
:1022C00087E7BAB9E5BA93E697B6E59CB0E59D8095
:1022D000E5BA8FE58FB7E8B685E587BAE68C87E77C
:1022E000BAB9E5BA93E88C83E59BB400E588A0E928
:1022F00099A4E6A8A1E69DBFE5A4B1E8B4A50000B5
:10230000E6B885E7A9BAE68C87E7BAB9E5BA93E5F6
:10231000A4B1E8B4A5000000E7BC93E586B2E58C63
:10232000BAE58685E6B2A1E69C89E69C89E69588B1
:10233000E58E9FE5A78BE59BBEE8808CE7949FE444
:10234000B88DE68890E59BBEE5838F00E8AFBBE5DE
:10235000869920464C41534820E587BAE994990074
:10236000E69CAAE5AE9AE4B989E99499E8AFAF0092
:10237000E697A0E69588E5AF84E5AD98E599A8E5F0
:102380008FB70000E5AF84E5AD98E599A8E8AEBE4B
:10239000E5AE9AE58685E5AEB9E99499E8AFAF0078
:1023A000E8AEB0E4BA8BE69CACE9A1B5E7A081E663
:1023B0008C87E5AE9AE99499E8AFAF00E68C87E7A1
:1023C000BAB9E5BA93E6BBA100000000E59CB0E510
:1023D0009D80E99499E8AFAF00000000E6A8A1E570
:1023E0009D97E8BF94E59B9EE7A1AEE8AEA4E7A069
:1023F00081E69C89E8AFAF000149086070470000A2
:102400000C3C024070B504460A460026092502B974
:1024100009E0012A01D1160205E0022A01D11602C3
:1024200001E04FF4407600F09FF80546092D28D1D1
:102430001548006820F44070134908600846006899
:10244000304308600846006820F0F800086008463D
:10245000006844F0020108430B4908600846006820
:1024600040F48030086000F07FF8054606480068B8
:1024700020F00200044908600846006820F0F800D7
:102480000860284670BD0000103C02400920134936
:10249000096801F48031B1F5803F01D101201CE0D1
:1024A0000E49096801F0100109B1062015E00B4939
:1024B000096801F4807109B102200EE0074909683A
:1024C00001F0EF0109B1072007E00449096801F0B4
:1024D000020109B1082000E0092070470C3C0240CD
:1024E0000348006840F00040014908607047000060
:1024F000103C024030B502460C46092500F034F885
:102500000546092D19D10E48006820F440700C4989
:1025100008600846006840F40070086008460068DB
:1025200040F001000860146000F01EF80546044801
:10253000006820F0010002490860284630BD000014
:10254000103C02400548006800F0004028B10448F3
:1025500002490C390860034808607047103C02408B
:1025600023016745AB89EFCD08B509200090FFF73F
:102570008DFF009002E0FFF789FF00909DF80000BA
:102580000128F8D09DF8000008BDF0B50A460021EA
:102590000023002400BF3DE0012505FA01F3156882
:1025A00005EA03049C4234D105684F000326BE406F
:1025B000B543056015794E00B540066835430560A2
:1025C0001579012D02D01579022D16D185684F009D
:1025D0000326BE40B543856055794E00B5408668F8
:1025E00035438560456801268E40B54345604568A2
:1025F00096798E40B6B235434560C5684F000326D4
:10260000BE40B543C560D5794E00B540C668354378
:10261000C560491C1029BFD3F0BDF0B500230024CC
:102620004D07ED0E02FA05F3CE1000F1200555F826
:1026300026504E07F70E0F26BE40B543CF1000F1CF
:10264000200646F82750CE1000F1200555F82650F8
:1026500045EA0304CE1000F1200545F82640F0BD00
:10266000018370470AB1018300E04183704700BFD6
:10267000FEE700001CB50121102000F011FF202012
:10268000009000208DF804008DF8060003208DF8DE
:10269000050002208DF8070069460248FFF775FF24
:1026A0001CBD0000001002407CB50546EF208DF8EF
:1026B000000001208DF801001A480068000E8DF816
:1026C000020018480068000C8DF8030015480088C7
:1026D000000A8DF80400134800788DF805000720E3
:1026E0008DF8060000208DF807000F49088012E0E1
:1026F000012002F005FA0C48008800F4004050B1B7
:1027000000200949088069460848FDF7E7FF0446AC
:102710000CB120467CBD681E80B2051EE8D100BF0A
:10272000F8E700005C00002078000020BC050020D5
:102730001CB50121302000F0B3FE4FF4C0600090C2
:1027400001208DF8040000208DF806008DF80700A8
:1027500003208DF8050069460A48FFF716FF4FF47D
:10276000C040009069460848FFF70FFF4FF4C06172
:102770000448FFF775FF4FF4C0410348FFF770FFAF
:102780001CBD000000140240001002402DE9FC4175
:102790000446002708210846FFF784FB80210E200D
:1027A000FFF780FB00210D2001F0DEFD932020705B
:1027B0002020607001A823460222214600900C20B0
:1027C00000F0B5F806465EB9002503E0605D4740BD
:1027D000681CC5B2042DF9DB605DB84200D002264A
:1027E00080210E2001F015FA3046BDE8FC8110B5BD
:1027F00000F056F800F038F88D212A2001F0B4FDE1
:102800003E212B2001F0B0FD32212D2001F0ACFD46
:1028100000212C2001F0A8FD4021152001F0A4FD8D
:102820003D21112001F0A0FD0021012001F09CFDBF
:10283000FFF709FB10BD7CB506460C4607210D20AD
:1028400001F092FD267001A8234601222146009046
:102850000C2000F06CF805461DB9BDF804001028E6
:1028600000D0022528467CBD10B501200A49086029
:1028700002F074F900200949C1F8AC02012002F00D
:102880006DF901200449086002F068F90F21012068
:1028900001F06AFD10BD0000AC024142000041425F
:1028A0001CB501210C2000F0FBFDC0200090012090
:1028B0008DF8040002208DF8050000208DF8060038
:1028C0008DF8070069461148FFF75FFE4FF404607A
:1028D000009001208DF8040002208DF805000020F2
:1028E0008DF806008DF8070069460948FFF74DFE90
:1028F0004FF48070009000208DF804006946044871
:10290000FFF743FE0120034908601CBD000C024094
:10291000000802409C82414210B5FF2002F0D0FD29
:1029200010BD10B50446204602F0CAFD10BD2DE9C9
:10293000FE4F0646884691469A46DDF830B00220A2
:1029400002900020019000900C2E06D00E2E09D18E
:10295000122001901020009005E077200190302097
:10296000009000E000BF00BF019840F0800102200D
:1029700001F0FAFC80210420FFF794FA80210A205C
:1029800001F047F90021012001F0EEFC002506E0EE
:1029900018F80510092001F0E7FC681C85B24D45C8
:1029A000F6DB3146012001F0DFFC0C2E03D1802143
:1029B0000D2001F02EF942F2107500BF042001F045
:1029C000ABF80446681E85B235B104F0010018B9B1
:1029D000009820400028F1D080210D20FFF762FAF6
:1029E000002D36D0062001F097F800F01B0070BBD8
:1029F0000198204000F0010008B1012002900C2E47
:102A000022D10A2001F088F804460C2001F084F855
:102A100000F007072FB1601E07EBC000ABF8000005
:102A200002E0E000ABF8000004B90124122C00DD44
:102A30001224002506E0092001F06EF80AF80500CE
:102A4000681C85B2A542F6DB0020029001E002205E
:102A5000029080210C2001F087FC0021012001F070
:102A600083FC0298BDE8FE8F00BF0549098801F08C
:102A700040010029F9D00249091D08807047000073
:102A80000048004000BFFEE77047000070B500211D
:102A900000230F22C4781CB3174C246804F4E064AC
:102AA000C4F5E064C4F30721C1F10404E3B20A41B0
:102AB00044789C40E1B28478144021430C07210EF5
:102AC0000E4C05786155047804F01F050124AC40D4
:102AD00005786D11AD0005F1E025C5F8004109E06C
:102AE000047804F01F050124AC40054D06787611EA
:102AF00045F8264070BD00000CED00E000E400E069
:102B000080E100E002490143024A11607047000081
:102B10000000FA050CED00E000200CE0002106E0CA
:102B20000022064B03EBC0135A544A1CD1B2802931
:102B3000F6DB421CD0B20828F0DB70479000002082
:102B40002DE9F04304460D4616461F46284638E058
:102B5000224631E0002A2DDB7F2A2BDC002829DBEE
:102B60003F2827DC4FEAE07C00EB5C7C4FEAEC0C72
:102B7000DFF8588008EBCC1C1CF802C003464FEA73
:102B8000E07800EB58784FEAE808A0EBC8094FF06E
:102B9000010808FA09F82CEA080C01464FEAE07827
:102BA00000EB58784FEAE808DFF8209009EBC818E6
:102BB00008F802C0511C0AB2A1199142CADC411C9A
:102BC00008B2E9198142C3DCBDE8F083900000201F
:102BD00010B58D2000F054FA102000F051FAAE200C
:102BE00000F04EFA10BD10B58D2000F049FA142007
:102BF00000F046FAAF2000F043FA10BD1CB5C82023
:102C000001F07EFF0121022000F04AFC0121082092
:102C100000F046FC0121102000F042FC01208DF85C
:102C2000040000208DF8060003208DF80500002028
:102C30008DF807004FF40040009069461748FFF7F1
:102C4000A4FC4FF48060009069461548FFF79DFC96
:102C50004FF48070009069461148FFF796FC4FF4DE
:102C60008040009069460F48FFF78FFC4FF480507A
:102C7000009069460B48FFF788FC002000F0D0F96F
:102C8000012000F0D9F9012000F0EEF9012000F058
:102C9000DFF9012000F0B8F91CBD0000000402407B
:102CA000000C02400010024010B5FFF7A7FFAE2055
:102CB00000F0E6F9D52000F0E3F9802000F0E0F91B
:102CC000A82000F0DDF93F2000F0DAF9D32000F071
:102CD000D7F9002000F0D4F9402000F0D1F9A1206C
:102CE00000F0CEF9C82000F0CBF9DA2000F0C8F9E6
:102CF000122000F0C5F9812000F0C2F9CF2000F0C9
:102D0000BFF9D92000F0BCF9F12000F0B9F9DB20BF
:102D100000F0B6F9302000F0B3F9A42000F0B0F9CB
:102D2000A62000F0ADF98D2000F0AAF9142000F0E3
:102D3000A7F9AF2000F0A4F9FFF7EEFE00F050F97C
:102D400010BD0FB470B5C2B005460E4614464AA871
:102D5000019002A8019A4999FDF7DEFA002001903E
:102D6000234602AA3146284600F022F942B070BC40
:102D70005DF814FB70B50546002411E08021214167
:102D8000294009B1012100E00021084600F054F972
:102D9000012000F045F9002000F042F9601CC4B2A7
:102DA000082CEBDB70BD70B505460C4645F0B00055
:102DB00000F066F9102141EA141000F061F904F006
:102DC0000F0000F05DF970BDF8B506460F461446D9
:102DD0001D46082D0CD1A4F120000E4901EB001076
:102DE0001023082239460090304600F063F80FE0C7
:102DF000062D0DD1A4F1200000EB4000064901EBA7
:102E000040000823062239460090304600F052F870
:102E1000F8BD0000845A0008746000082DE9FC47E2
:102E2000804689461646002700200190002538E09C
:102E3000705D01A9C855781CC7B2032F2FDB00278E
:102E400000240BE004EBC401184A02EB810001A945
:102E5000FDF77EFC00B90BE0601CC4B204EBC401BA
:102E6000124A02EB810012A1FDF772FC0028E9D1A1
:102E700000BF681C032190FBF1F0401E08EB00101E
:102E80000FFA80FA04EBC400084901EB8000001D32
:102E900010231A4649460090504600F00BF8681C73
:102EA000C5B2705D0028C3D1BDE8FC87AE620008E2
:102EB000000000002DE9FF4F80460E469146DDF8E8
:102EC00034B0002500244A4631464046039BFFF7B4
:102ED00037FE00BF5EE0002558E008EB0500002843
:102EE00052DB08EB05007F284EDC3046F11706EB7D
:102EF0005171C9100FB2F11706EB5171C910A6EB51
:102F0000C10A002E05DA781E07B20AF108000FFA8E
:102F100080FA3819002817DB3819072814DC38190B
:102F2000224901EBC01008EB0501405C04FB09518C
:102F30001BF8011001FA0AF1084339191B4A02EB88
:102F4000C11108EB050288543819401C00281BDB0E
:102F50003819401C072817DC3819401C134901EBAD
:102F6000C01008EB0501405C04FB09511BF801107F
:102F7000CAF10802114108433919491C0B4A02EBF6
:102F8000C11108EB05028854681CC5B24D45A4DB8D
:102F9000601CC4B20399481EC11700EB5171012295
:102FA00002EBE101A14296DCBDE8FF8F900000201A
:102FB0002DE9F0410646884615461F46002409E0E3
:102FC0002A5D04FB076108B23B464146FFF7FCFE61
:102FD000601CC4B2285D0028F2D1BDE8F081000079
:102FE00010B500240BE000212046FFF7DCFE054968
:102FF00001EBC410802100F052F8601CC4B2082C10
:10300000F1DB10BD9000002010B5044622464FF4BD
:1030100080510248FFF726FB10BD0000001002405F
:1030200010B5044622464FF400410248FFF71AFB50
:1030300010BD00000004024010B5044622464FF4C3
:1030400080610248FFF70EFB10BD0000000C02403B
:1030500010B5044622464FF480410248FFF702FBB8
:1030600010BD00000010024010B5044622464FF487
:1030700080710248FFF7F6FA10BD0000000C024014
:1030800010B504460020FFF7BFFF0020FFF7E0FF68
:103090002046FFF76FFE0120FFF7B6FF10BD70B5A9
:1030A00005460E460020FFF7AFFF0120FFF7D0FFD7
:1030B000002404E0285DFFF75DFE601CC4B2B4424A
:1030C000F8DB0120FFF7A0FF70BD2DE9F0410446B9
:1030D0000D4600F086FD00F05BFD012000F07BFD59
:1030E000072000F086FD0C2000F08DFD2012FFF778
:1030F000BBFCE0B2FFF7B8FC2812FFF7B5FCE8B262
:10310000FFF7B2FC142000EB2420E1B2084400EBEE
:103110002520E9B200EB0108404600F053FD4FF4D2
:10312000FA60FFF7C1FA07460FB17E7A00E0FF268A
:103130003046BDE8F08170B500F053FD00F028FD89
:10314000012000F048FD032000F053FD0D2000F0A9
:103150005AFD1126304600F035FD4FF4FA60FFF7B6
:10316000A3FA05460DB16C7A00E0FF24204670BD3D
:103170002DE9F041054600F034FD00F009FD012085
:1031800000F029FD042000F034FD022000F03BFD9A
:103190002846FFF769FCEF1D384600F013FD4FF499
:1031A000FA60FFF781FA06460EB1747A00E0FF2458
:1031B0002046BDE8F08170B500F013FD00F0E8FC9A
:1031C000012000F008FD032000F013FD012000F0B5
:1031D0001AFD0526304600F0F5FC4FF4FA60FFF7C3
:1031E00063FA05460DB16C7A00E0FF24204670BDFD
:1031F00010B5044600F0F5FC00F0CAFC0120FFF712
:1032000033FC0020FFF730FC0020FFF72DFCC82026
:1032100001F076FC1448008800F4004008B313481D
:103220000078EF281AD111484078012816D10F48AC
:103230008079072812D10D48807800060B49C9789B
:1032400000EB01400949097900EB01200749497960
:103250000844206000200449088010BD0020024975
:1032600008800120F9E7000078000020BC0500205C
:103270002DE9F04781460D4616461F4600F0B1FC89
:1032800000F086FC012000F0A6FC082000F0B1FC54
:103290001B2000F0B8FC4846FFF7E6FB2812FFF7BA
:1032A000E3FBE8B2FFF7E0FB3012FFF7DDFBF0B223
:1032B000FFF7DAFB09F1240000EB2520E9B208440E
:1032C00000EB2620F1B200EB010A504600F07AFC38
:1032D0004FF4FA60FFF7E8F9044664B194F8098006
:1032E000E07AA17A00EB01203880607B217B00EB43
:1032F0000120788001E04FF0FF084046BDE8F087EC
:1033000070B500F06EFC00F043FC012000F063FC9F
:10331000032000F06EFC032000F075FC0726304609
:1033200000F050FC4FF4FA60FFF7BEF905460DB10E
:103330006C7A00E0FF24204670BD00002DE9F041CA
:10334000054600F04EFC00F023FC012000F043FC99
:10335000032000F04EFC0F2000F055FC13273846E8
:1033600000F030FC4FF47A70FFF79EF90446BCB1D0
:10337000667AE07BA17B00EB01202880607CA8704E
:10338000A07C0006E17C00EB0140217D00EB0120E8
:10339000617D08446860E07D2872607E687200E0AC
:1033A000FF263EB13046FEF7B5FE8046414603A0FB
:1033B000FCF7C4FF3046BDE8F08100000D0A25731C
:1033C0000000000070B500F00CFC00F0E1FB0120F3
:1033D00000F001FC032000F00CFC052000F013FCC1
:1033E0000926304600F0EEFB4FF4FA60FFF75CF977
:1033F00005460DB16C7A00E0FF24204670BD000048
:103400001CB50121084600F04BF840200090002038
:103410008DF8040002208DF8070003208DF80500C8
:1034200069460248FFF7B1F81CBD000000000240E9
:103430002DE9F04106460C4600F0D3FB00F0A8FB56
:10344000012000F0C8FB062000F0D3FB062000F0AE
:10345000DAFB3046FFF708FB2012FFF705FBE0B26E
:10346000FFF702FB06F10D0000EB2420E1B200EBB8
:103470000108404600F0A6FB4FF4FA60FFF714F98C
:1034800007460FB17D7A00E0FF252846BDE8F081B0
:10349000014908627047000000000E4270470000BA
:1034A00029B1064A12680243044B1A6004E0034A39
:1034B00012688243014B1A607047000030380240A6
:1034C00029B1064A12680243044B1A6004E0034A19
:1034D00012688243014B1A60704700004038024076
:1034E00029B1064A12680243044B1A6004E0034AF9
:1034F00012688243014B1A60704700004438024052
:10350000F0B5002100220024022500260223324FBC
:103510003F6807F00C0121B1042905D0082937D1F3
:1035200005E02E4F076036E02D4F076033E02A4F4D
:103530003F1F3F68C7F38056274F3F1F3F6807F084
:103540003F036EB1264FB7FBF3F7DFF88CC0ACF149
:10355000040CDCF800C0CCF3881C07FB0CF40CE076
:103560001E4FB7FBF3F7DFF870C0ACF1040CDCF8CA
:1035700000C0CCF3881C07FB0CF4174F3F1F3F68BB
:10358000C7F301477F1C7D00B4FBF5F7076002E03D
:10359000124F076000BF00BF0F4F3F6807F0F001F8
:1035A0000909104F7A5C0768D74047600A4F3F68A7
:1035B00007F4E051890A0B4F7A5C4768D74087606F
:1035C000054F3F6807F46041490B064F7A5C476836
:1035D000D740C760F0BD0000083802400024F40066
:1035E00000127A001800002010B5014600220023C6
:1035F00000204A11012A02D10A4C236808E0022A5D
:1036000003D1084C7034236802E0064C74342368FC
:1036100001F01F02012494401C400CB1012000E085
:10362000002010BD003802400021094A11701170BD
:10363000012802D0042808D103E00121044A1170B6
:1036400004E00521024A117000E000BF00BF70478E
:103650007038024001490860704700003C0E474244
:10366000002100F44072B2F5407F08D1094A116888
:1036700021F4F811084A02401143064A1160054A34
:1036800068321268C0F30B031A43024B68331A60A6
:103690007047000008380240FFFCFF0F10B54FF4E0
:1036A000805000F091F848B10120054908700003EE
:1036B00000F022F84FF40030FEF78CFC10BD000043
:1036C00035000020014600BF080900EB80004200E1
:1036D00001F00F001044C0B270470146002204E020
:1036E000501CC2B2A1F10A00C1B20A29F8DA1007CF
:1036F00041EA106070470000002101098AB242F0DF
:103700008002044B1B6803F0800363EA0202014B52
:103710001A6070470C28004008B500220092002073
:103720000021104A126802F04002CAB9421E0D4B35
:103730001A6000BF0B4A126802F04001009A521C46
:103740000092009AB2F5803F01D00029F2D0054ADC
:10375000126802F040020AB1012002E0002000E0FD
:10376000012008BD0C2800400348006820F08000BC
:1037700001490860704700000C28004070B50646FB
:103780000C4600250E4800680E4900EA0105280C89
:10379000E070C5F30420607005F03F00A070C5F331
:1037A000423020705EB9E078FFF78CFFE0706078FF
:1037B000FFF788FF6070A078FFF784FFA07070BDEE
:1037C000042800403FFFFF0030B5014600200022E2
:1037D00000230C4C246804F004020A4C383C246892
:1037E0000C4002EAD13544EA0503064C343C246817
:1037F00004EA11121BB194B20CB1012000E00020C8
:1038000030BD00004028004070B506460C4600253B
:103810000F4800680F4900EA0105C5F30540207014
:10382000C5F30620607005F07F00A07005F48000ED
:10383000000CE0705EB92078FFF744FF20706078DC
:10384000FFF740FF6070A078FFF73CFFA07070BDED
:10385000002800407F7F7F0030B504460025CA2045
:103860001549086053200860FFF756FF00B91DE0B6
:1038700011481C38006820F040000F491C390860CE
:1038800008460068216808430B491C3908600A494A
:103890001439A068086008460068A18840EA014021
:1038A000054914390860FFF75FFF0125FF20024931
:1038B0000860284630BD00002428004008B50146B5
:1038C0000020009004480090009800EB81000090D8
:1038D0000098006808BD0000502800402DE9F04124
:1038E00005460C46002600274DB9607800F0100010
:1038F000102804D1607820F010000A30607005B9FB
:1039000008E06078FFF7DEFE0646A078FFF7DAFEF3
:10391000064600BF55B1E0780004617840EA012016
:10392000A1780843217840EA413611E0E078FFF7BA
:10393000D4FE4FEA00486078FFF7CFFE48EA00283F
:10394000A078FFF7CAFE48EA0008207848EA403627
:10395000CA201249086053200860FFF7DDFE08B94D
:10396000002714E00E4830400C4920390860FFF76A
:10397000FBFE0A481C38006800F0200030B900F057
:103980008DF808B9002702E0012700E00127FF2099
:10399000024908603846BDE8F08100002428004054
:1039A0003FFFFF002DE9F04105460C4600260027A9
:1039B0004DB92E48006800F0400000B102E0002040
:1039C000E07000BF0DE02948006800F0400020B121
:1039D0002078FFF777FE064602E00020E07000BF87
:1039E00000BF55B120780004617840EA0120A17839
:1039F0000843E17840EA014611E02078FFF76DFEC8
:103A00004FEA00486078FFF768FE48EA0028A0788F
:103A1000FFF763FE48EA0008E07848EA0046CA205B
:103A200012491C31086053200860FFF775FE08B981
:103A3000002713E00E4830400C4908390860FFF7B2
:103A400093FE0A48006800F0200030B900F026F824
:103A500008B9002702E0012700E00127FF20034901
:103A60001C3108603846BDE8F0810000082800409D
:103A70007F7F7F0010B54FF48040FFF7A5FE50B167
:103A80004FF48040FFF738FE4FF48000FEF7A2FAB3
:103A900001200149087010BD3400002008B5002243
:103AA000009200200021CA22134B1A6053221A6090
:103AB000114A183A126822F0A0020F4B183B1A6004
:103AC00000BF0D4A183A126802F02001009A521CF9
:103AD0000092009AB2F5003F01D00029F1D0064AC9
:103AE000183A126802F020020AB1012000E000201A
:103AF000FF22014B1A6008BD2428004008B50022AF
:103B00000092044A0092009A02EB80020092009A0E
:103B1000116008BD5028004070B5044600200949D6
:103B200008607E2101EA440141F08000FEF7F9FEC1
:103B3000FEF7F2FE054601200349C1F89802284627
:103B400070BD0000988241420080414270470000F1
:103B500030B500228B071C0F0F2303FA04F20B4B26
:103B60008C1053F824309343084C8D1044F82530C2
:103B700023468C1053F824308C07240F00FA04F4E9
:103B80002343024C8D1044F8253030BD08380140E5
:103B900010B50B490968080EFEF766FF0848006873
:103BA000C0F30740FEF760FF05480088C0F3072018
:103BB000FEF75AFF02490878FEF756FF10BD0000D5
:103BC0005C00002010B504462012FEF74DFFE0B265
:103BD000FEF74AFF10BD10B504462046FEF744FF2D
:103BE00010BD10B5EF20FEF73FFF0120FEF73CFFB0
:103BF00010BD10B50446C4F30720FEF735FFE0B250
:103C0000FEF732FF10BD10B504462046FEF72CFF2C
:103C100010BD70B505460C4600262846FFF77CFF10
:103C2000064646EA0401284600F09EFB70BD0000EF
:103C30000CB50020019000903448006840F48030BA
:103C40003249086000BF3148006800F4003000903D
:103C50000198401C0190009818B90198B0F5A04F48
:103C6000F1D12A48006800F4003010B10120009022
:103C700001E0002000900098012846D12348403000
:103C8000006840F0805021494031086020480068B9
:103C900040F440401E4908601C48083000681B4939
:103CA000083108600846006840F400400860084693
:103CB000006840F4A05008601648091F0860081FFB
:103CC000006840F08070091F086000BF0F4800685E
:103CD00000F000700028F9D040F205700E4908602D
:103CE0000A480830006820F00300084908310860DD
:103CF0000846006840F00200086000BF0348083032
:103D0000006800F00C000828F8D10CBD0038024013
:103D10000070004008544007003C024070B5044663
:103D20002046FEF7F7F90546294602A0FCF706FBF8
:103D300070BD000025730A0010B56FF0040000F09C
:103D400001F810BD042808D14FF0E021096941F0C5
:103D500004014FF0E022116107E04FF0E021096912
:103D600021F004014FF0E02211617047704700001C
:103D700010B51548006840F47000134908601348F6
:103D8000006840F001001149086000200F49083127
:103D900008600E4800680E4908400C4908600D484C
:103DA000091D0860081F006820F48020091F0860B2
:103DB000002006490C310860FFF73AFF4FF0006021
:103DC00001498039086010BD88ED00E000380240EC
:103DD000FFFFF6FE1030002410B50121084800F066
:103DE000B2F801280BD10748006808B9012000E0AB
:103DF0000020044908600121014800F095F810BD39
:103E000000000140A482424210B50121880700F061
:103E10009AF801280DD1FEF7DBFE00214FF080401B
:103E200000F085F80120034908700121800700F0A7
:103E30007BF810BD3000002010B50121084800F0CB
:103E400082F801280AD10748006880F0010006497D
:103E5000C1F8B4020121024800F066F810BD00006C
:103E600000040040B40242420000424210B5012169
:103E7000094800F068F801280DD10848008840F48E
:103E80000040064908800021034800F050F8012155
:103E9000014800F049F810BD0010004078000020F3
:103EA00010B501210F4800F04EF8012818D10E4836
:103EB000006808B9012000E000200B4908600B48A9
:103EC0000078401CC0B209490870022804D10020C3
:103ED00008700120064908700121024800F024F80A
:103EE00010BD000000140040A482424231000020B6
:103EF0002F00002010B50121084800F024F8012807
:103F00000AD10748006880F001000649C1F8B802EC
:103F10000121024800F008F810BD00000004014033
:103F2000B802424200004242CA430282704721B1B5
:103F3000028842F00102028004E002884FF6FE731C
:103F40001A400280704730B502460020002300244A
:103F5000158A05EA0103958905EA010413B10CB13C
:103F6000012000E0002030BD1AB183890B4383811A
:103F700002E083898B438381704741627047000070
:103F800000220288184B98420ED0184B98420BD052
:103F9000B0F1804F08D0164B984205D0154B98428F
:103FA00002D0154B984204D14FF68F731A404B88BC
:103FB0001A43124B984207D0114B984204D04FF647
:103FC000FF431A400B891A4302804B68C3620B8877
:103FD0000385054B984202D0044B984201D18B7A5D
:103FE00003860123838270470000014000040140E2
:103FF0000004004000080040000C00400010004099
:104000000014004010B540F22551144800F0C2F8E9
:10401000012822D1114800F077F9044610480268BF
:104020000068401C0E4B18600E488454232C03D0AB
:104030001846006864280BD3002109480068401E18
:10404000084A11540020064908600120064908600A
:1040500040F22551014800F075F810BD00100140F4
:1040600064000020900400206000002010B540F2A1
:104070002551144800F08EF8012822D1114800F093
:1040800043F90446104802680068401C0E4B186053
:104090000E488454232C03D01846006864280BD3A0
:1040A000002109480068401E084A115400200649B2
:1040B000086001200649086040F22551014800F0DF
:1040C00041F810BD004400406C000020F4040020C2
:1040D0006800002010B540F22551164800F05AF84B
:1040E00000B3144800F010F9C4B21348008800F47B
:1040F0000040B8B910480088642814DA00214FF055
:104100008040FFF73AFF0C48008818B901210B489E
:10411000FFF70DFF084801880088401C064A108000
:104120000748445405E00448008840F40040024930
:10413000088010BD004800407800002000100040BA
:10414000BC05002010B50022002340F66A14A142ED
:1041500000D100BF0A1201249440A3B2DC430480C2
:1041600010BD21B1828942F40052828104E082892B
:104170004DF6FF731A408281704702460020B1F568
:10418000007F00D100BF13880B400BB1012000E07D
:104190000020704770B5024600240023002500204F
:1041A00040F66A16B14200D100BFC1F3421501F0DA
:1041B0001F03012606FA03F3012D02D1968933402D
:1041C00006E0022D02D1168A334001E0968A334080
:1041D0000C12012606FA04F41688344013B10CB10F
:1041E000012000E0002070BDF0B503460024002649
:1041F0000025002040F66A17B94200D100BF1846DA
:10420000C1F3421401F01F06012707FA06F5012C3D
:1042100001D10C3004E0022C01D1103000E0143048
:104220001AB107682F43076002E00768AF430760D1
:10423000F0BD00002DE9FF4705460E460024A146CB
:1042400000BFA046B08900B100BF2C8A24F44054BE
:10425000F08804432C82AC8941F20C608443B0881E
:1042600031890843718908430443AC81AC8A24F442
:104270004074B0890443AC826846FFF741F9204896
:10428000854202D01F48854202D1DDF80C9001E042
:10429000DDF80890A88900F4004040B109EBC9009E
:1042A00000EB091031684900B0FBF1F707E009EBBA
:1042B000C90000EB091031688900B0FBF1F76420F8
:1042C000B7FBF0F004012009642101FB1078A889F4
:1042D00000F4004040B1322000EBC800B0FBF1F028
:1042E00000F00700044308E0322000EB08106421CE
:1042F000B0FBF1F000F00F0004432C81BDE8FF8714
:10430000001001400014014001468888C0F30800F5
:104310007047C1F308028280704700BFFEE70000CB
:104320000020014908607047082C00400020034924
:10433000096809B1012000E000207047082C004006
:1043400010B5FFF7F3FF012804D1FFF7E9FF7F2045
:1043500000F002F810BD000000F07F01014A11607A
:1043600070470000002C004070B504460D46002048
:10437000074908607E2101EA4400FEF7D2FA284688
:10438000FEF7CFFA01200349C1F8980270BD000082
:10439000988241420080414203B401984100009854
:1043A00050EAC12018BF04204A0D18BF40F0010098
:1043B00040F2FF72B2EB515F08BF40F002000128EB
:1043C00008BF052002B0704730380A2801D201200A
:1043D00070470020704700BF70470000FEB50027FF
:1043E000002000900190029037E1052F3DD2DFE8D8
:1043F00007F0033D78BAEB00681CC5B2FEF78CFBF2
:1044000098A20A212020FEF709FDFEF7E9FDFEF73C
:10441000EAFB01218807FFF78AFDFEF7CCFE044680
:1044200004BB012093490860FEF7A2FE0446002069
:104430009149C1F8A0028CB9FEF76EFB8FA20A2148
:104440002020FEF7EBFCFEF7CBFDFEF7CCFB0121B5
:104450008807FFF76CFD0025012706E02046FFF7DF
:104460005DFC02E02046FFF759FCEEE0681CC5B297
:10447000FEF752FB85A214210020FEF7CFFCFEF7C9
:10448000AFFDFEF7B0FB01218807FFF750FDFEF7F7
:1044900092FE04460CBB0120764908600220FEF71C
:1044A00067FE044600207449C1F8A0028CB9FEF7EB
:1044B00033FB72A20A212020FEF7B0FCFEF790FD2C
:1044C000FEF791FB01218807FFF731FD0025022748
:1044D00006E02046FFF722FC02E02046FFF71EFC24
:1044E000B3E0FEF719FB70A20A210020FEF796FC4C
:1044F000FEF776FDFEF777FB01218807FFF717FD32
:10450000FEF7FEFE044684B9FEF706FB6BA20A2105
:104510002020FEF783FCFEF763FDFEF764FB01211C
:104520008807FFF704FD032718E0FEF7F5FA67A2F6
:104530000A212020FEF772FC68A21A210020FEF753
:104540006DFCFEF74DFDFEF74EFB01218807FFF7DE
:10455000EEFC2046FFF7E2FB002500274FF49660B3
:1045600000F0CEFA71E0FEF7D7FA62A21A2100201D
:10457000FEF754FCFEF734FDFEF735FB01218807FA
:10458000FFF7D5FCFEF71EFF0446A4B9FEF7C4FAF8
:104590005DA21A210020FEF741FCFEF721FD4FF439
:1045A0007A7000F0ADFAFEF71EFB01218807FFF7D5
:1045B000BEFC042703E000272046FFF7AFFB4FF4C3
:1045C000966000F09DFA40E0FEF7A6FA55A20A2197
:1045D0000020FEF723FC082356A21A215020FEF7E4
:1045E000E7FC082354A220210020FEF7E1FCFEF79F
:1045F000F7FCFEF7F8FA01218807FFF798FC00BFE7
:10460000684600F013FB6846FCF754F886B2B6F52E
:10461000967FF5DA31460220FEF70AFF04467CB9A0
:10462000FEF77AFA48A21A210020FEF7F7FBFEF700
:10463000D7FCFEF7D8FA01218807FFF778FCFEBD0A
:1046400000272046FFF76AFB00BF00BF4FF4C87089
:1046500000F056FA052D00D100E0C6E600BF00BF0D
:10466000EDE70000E8AFB7E68C89E68C87E7BAB9DA
:1046700000000000A082424200804242E68C87E7B0
:10468000BAB9E6ADA3E5B8B800000000E8AFB7E6F8
:104690008C89E5868DE68C89E4B880E6ACA1E68C51
:1046A00087E7BAB900000000E5AFB9E6AF94E4B817
:1046B000A4E6ACA1E68C87E7BAB90000E5AFB9E69D
:1046C000AF94E68890E58A9F00000000E5AFB9E668
:1046D000AF94E5A4B1E8B4A500000000E8AFB7E9E5
:1046E000878DE696B0E5BD95E585A5E68C87E7BAAA
:1046F000B9000000E7949FE68890E68C87E7BAB996
:10470000E6A8A1E69DBF0000E7949FE68890E68CAE
:1047100087E7BAB9E6A8A1E69DBFE68890E58A9F3B
:1047200000000000E8AFB7E8BE93E585A5E582A8E4
:10473000E5AD980049442C0030203D3C2049442000
:104740003C3D203239390000E5BD95E585A5E68C74
:1047500087E7BAB9E68890E58A9F00001CB518A1E2
:1047600003C9CDE90001184800782A2827D1164846
:1047700040792A2823D1FEF736FAFEF7CDF913A2A5
:104780000A212020FEF74AFBFEF72AFC01218807B8
:10479000FFF7CDFB01200CE00B490A5C411E1DF820
:1047A00001108A4203D000210C4A116003E0411C31
:1047B000C8B20528F0DB00BF0120084908601CBD15
:1047C0003132333400000000F4040020E8939DE708
:1047D0008999E8A7A3E99481000000000000002067
:1047E000FEB52A484668FEF797F9FEF7FCF928A2BD
:1047F0000A211820FEF712FBFEF7F2FB00200090C2
:1048000001900290684600F011FA6846FBF752FFEB
:10481000044623A20A211020FEF700FBFEF7E0FB6E
:10482000684600F003FA6846FBF744FF05462A464F
:10483000214620A0FBF782FDAC420BD023A20A2127
:104840000820FEF7EBFAFEF7CBFB40F6B83000F09D
:1048500057F9FEBDFDF776FE21460C48001DFDF719
:1048600049FEFDF73DFEFEF757F91EA20A21102072
:10487000FEF7D4FAFEF7B4FB01218807FFF757FBD8
:104880004FF4FA6000F03CF900BFE2E700000108D5
:10489000E8AFB7E8BE93E585A5E5AF86E7A0810060
:1048A000E5868DE6ACA1E8BE93E585A5E5AF86E794
:1048B000A0810000707764203D2025642C20707753
:1048C0006431203D2025640A00000000E4B8A4E61D
:1048D000ACA1E5AF86E7A081E4B88DE4B880E887B5
:1048E000B4000000E5AF86E7A081E8AEBEE7BDAE4C
:1048F000E68890E58A9F00002DE9FE432B48466834
:104900000027002000900190029000244FF0010841
:104910001FE0002000F040FA0546681CB0B1232DCE
:1049200001D1002418E02A2D05D164B1641E0020B5
:104930000DF8040007E0EAB22046641C0DF80020E0
:1049400000200DF804004FF0FF3502E00CB94FF0E5
:104950000008B8F1000FDCD100BFB8F1010F23D17E
:104960006846FBF7A7FE0746394611A0FBF7E6FCB1
:10497000314612A0FBF7E2FCB74203D000201449F5
:10498000086011E0012012490860FEF7C5F811A285
:104990000A212020FEF742FAFEF722FBFEF723F958
:1049A00001218807FFF7C3FABDE8FE830000010874
:1049B000707764203D2025640A000000756E6C6FDE
:1049C000636B5F707764203D2025640A000000005F
:1049D00000000020E5AF86E7A081E8A7A3E9948165
:1049E0000000000010B5FEF7A6FB04467CB9FEF7F8
:1049F00093F809A21A210020FEF710FAFEF7F0FA48
:104A0000FEF7F1F801218807FFF791FA02E020464E
:104A1000FFF784F910BD0000E6B885E7A9BAE68C77
:104A200087E7BAB9E68890E58A9F00003EB5002086
:104A3000009001900290FEF76FF81FA20021202045
:104A4000FEF7ECF920A210210020FEF7E7F9082379
:104A500021A210215020FEF7ABFA08231FA220212B
:104A60000020FEF7A5FAFEF7BBFAFEF7BCF801211D
:104A70008807FFF75CFA684600F0D8F86846FBF74D
:104A800019FE85B201212846FEF71FFB04467CB9BA
:104A9000FEF742F815A21A210020FEF7BFF9FEF733
:104AA0009FFAFEF7A0F801218807FFF740FA02E01D
:104AB0002046FFF733F93EBDE588A0E999A4E68CCE
:104AC00087E7BAB900000000E8AFB7E8BE93E58514
:104AD000A5E582A8E5AD980049442C0030203D3C76
:104AE000204944203C3D203239390000E588A0E9C6
:104AF00099A4E68C87E7BAB9E68890E58A9F00001A
:104B0000014624E0144A12684FF47A73B2FBF3F2C0
:104B1000D2084FF0E0235A6100229A611A461269C6
:104B200042F001021A6100BF4FF0E022106900F06C
:104B300001021AB100F48032002AF5D000224FF0B1
:104B4000E0239A611A46126922F001021A610A1ED4
:104B5000A1F10101D6D1704704000020014623E0F5
:104B6000144A1268144BB2FBF3F2D2084FF0E02360
:104B70005A6100229A611A46126942F001021A61D2
:104B800000BF4FF0E022106900F001021AB100F4FA
:104B90008032002AF5D000224FF0E0239A611A46B5
:104BA000126922F001021A610A1EA1F10101D7D196
:104BB000704700000400002040420F0010B50F486D
:104BC00004680F48844217D0FDF7BCFCF320FDF7C2
:104BD00013FC02212020FDF715FC02212820FDF7FF
:104BE00011FC07490548FDF785FC06490348001DEF
:104BF000FDF780FCFDF774FC10BD0000000001080B
:104C000040E20100F1FB090070B504460D46A1B277
:104C10000548FFF77EFB00BF80210348FFF7ADFA90
:104C20000028F9D0204670BD0010014070B505463F
:104C3000002417E0002000F0AFF80646701C88B191
:104C4000232E01D100240EE02A2E04D144B1641E8B
:104C50000020285504E02046641C2E5400202855CE
:104C60004FF0FF36E6E700BF70BD000010B500242E
:104C700001200D4908600F20FFF770FF00200B494D
:104C8000C1F8A40200BF0A4800680028FBD003E076
:104C9000641C0920FFF762FF054800680028F7D16F
:104CA00004EB4400400810BDA4024342000043420C
:104CB000200240421CB501215720FEF7F1FB4FF4C2
:104CC0000070009000208DF8040001208DF807008E
:104CD00069462748FDF759FC402000906946254861
:104CE000FDF753FC4020009069462348FDF74DFC3A
:104CF0004FF48070009069462048FDF746FC802004
:104D0000009001208DF8040000208DF8060003209B
:104D10008DF8050000208DF8070069461548FDF75D
:104D200034FC1020009069461448FDF72EFC4FF427
:104D30000040009069461248FDF727FC8020009053
:104D400069460B48FDF721FC01200E4908600E4919
:104D5000C1F890020D4908600D4908600C49783986
:104D600008600849843908600A4908601CBD0000D1
:104D7000000802400004024000100240000002400F
:104D8000001802409C82404200004042BC02434264
:104D90009C0241421802424270B505465E480078C6
:104DA00001287DD100248CE00CB1012000E000201E
:104DB0005A490860012C01D0012000E00020584928
:104DC0000860022C01D0012000E000205549086055
:104DD000032C01D0012000E0002053490860534813
:104DE000D0F8240238B14D488438006818B15048D2
:104DF0000068002864D10F20FFF782FE4A48783807
:104E0000006838B145488438006818B148480068DF
:104E1000002855D100204049087043487838006880
:104E200060B904EB4400401C40B242490870084697
:104E300000780A2822D1FA2008701FE03748843809
:104E4000006860B904EB4400801C40B23949087026
:104E5000084600780B2811D1002008700EE0344875
:104E6000006858B904EB4400C01C40B231490870D6
:104E7000084600780C2801D1F320087001202E4943
:104E800008603220FFF73CFE00202C49C1F8A00248
:104E900000BF2548783800680028FAD000BF00E03D
:104EA00013E01E48843800680028F8D000BF20486E
:104EB00000680028FBD01F480078303040B270BD39
:104EC000641C042CFFF670AF1CE0174878380068AB
:104ED000012817D1114884380068012812D11448DC
:104EE000006801280ED10D4908601549C1F89002EB
:104EF0000C4908600C490860FF200E490870012029
:104F000005490870012D02D10120034908700948A4
:104F100090F90000D3E70000320000209C8240425C
:104F200090024042BC0243429C0241420000414286
:104F30001802424233000020A082424200804242D6
:104F40000000404210B50120054908604FF47A7016
:104F5000FFF7D6FD00200349C1F8A00210BD0000F4
:104F6000A08242420080424210B5FDF7D5FD1AA250
:104F70000A212020FDF752FFFEF732F801201A49DE
:104F800008603220FFF7BCFD00201849C1F8A002DC
:104F90003220FFF7B5FD0120134908603220FFF7EA
:104FA000AFFD00201149C1F8A0023220FFF7A8FD93
:104FB00001200D4908603220FFF7A2FD00200B49B7
:104FC000C1F8A00240F2D660FFF79AFD01218807E0
:104FD000FEF7ADFF10BD0000E5BC80E99481E5A4BB
:104FE000B1E8B4A500000000A08242420080424225
:104FF00086B04FF4A060FDF785FDFEF79DFEFDF73E
:1050000097FBFCF72DFFFDF741F8FFF753FE4FF438
:10501000E13000F04FFB4FF4165000F0A3FB4FF4CB
:10502000614000F00BFC42F2D00141F2883000F008
:1050300011FB42F2D00147F2305000F0ABFA0021F0
:105040004FF08040FEF773FFFDF714FBFFF7B6FD4E
:1050500000F06EFAFEF7D4F900F0AEF9FDF724FE89
:10506000FDF7C5FB0DE04FF4C870FFF749FD53A0F5
:10507000FBF764F94FF44870FFF742FD56A0FBF7C9
:105080005DF95E48FEF7B4F80028ECD15CA0FBF7B0
:1050900055F9142101A8FBF733FB00255B48FEF707
:1050A0004DF9FDF7A0FD01218807FEF740FF84E0E0
:1050B00057480068401C60B155480068012802D17B
:1050C000FFF740FF01E0FFF74FFF4FF0FF3050497F
:1050D0000860FDF721FD01A800F0C6F94DA101A867
:1050E000FBF7F6FA06464BA10020FBF7F1FA06465D
:1050F00049A30822232120200096FDF722FE4748DD
:105100000A231A46002100900846FDF7D3FE4448C2
:105110000A231A46002100901846FDF7CBFE41A253
:105120000F211820FDF77AFE42480068012807D1B8
:1051300041480A231A46002100901420FDF7BAFEC8
:10514000FDF74EFFFDF7E8FC3C48006808B100F0B1
:105150007DF83B480078012804D1002038490870C8
:1051600000F0D6FB33480068012802D125B901259B
:1051700002E0012D00D100253248006820B1002056
:1051800030490860FFF7EAFAFFF7B6FB2E480078CF
:1051900090B100202C490870FFF768FD0446B4F573
:1051A000FA7F09D201218807FEF7C1FEFDF71BFD3A
:1051B000FDF71DFB00F096F800BF79E7E69CAAE634
:1051C000A380E6B58BE588B04153363038E6A8A118
:1051D000E59D972121210A00E5B09DE8AF95E9877B
:1051E0008DE696B0E8BF9EE68EA54153363038E690
:1051F000A8A1E59D972121210A0000005C00002064
:105200004153363038206F6B2E090A00840000208D
:10521000000000202000000025730000866F0008B9
:10522000AE6F0008E68C87E7BAB9E8939DE78999E5
:10523000E9948100248240429A6F0008180240429B
:1052400028000020680000202F00002038B5FDF75E
:10525000B2FF0446002C36D101201B490860FDF73F
:1052600087FF04462CBB00201749086017480288B6
:105270006B4600210120FDF7FBFF044694B9FDF7C2
:105280004BFC13A20A212020FDF7C8FDFDF7A8FE64
:10529000FDF7A9FC01218807FEF749FE012010490E
:1052A000086009E000200E4908602046FEF736FD40
:1052B00002E02046FEF732FD0020034908604FF46B
:1052C0001670FFF71DFC38BDA0824242840000200A
:1052D000E68C87E7BAB9E8A7A3E99481000000004B
:1052E000000000207CB5274903C9CDE9000126490B
:1052F0005220FDF7A0FA0646002E40D12348FDF7C4
:1053000045FA0646002E3AD1204800781F494978D0
:1053100040EA01201D49897840EA01401B49C978CB
:1053200040EA016421461AA0FBF708F8002521E0B5
:105330005DF82500A0421CD1FDF7EEFB18A20A2162
:105340002020FDF76BFDFDF74BFEFDF74CFC012126
:105350008807FEF7ECFD0120144908603220FFF7B2
:10536000CFFB00201249C1F8A002012011490860BA
:105370007CBD6D1C022DDBDB00200E49086000BFE8
:10538000F6E700007C5A00083C0000203E000020A8
:10539000636172645F6E756D203D202523780A007D
:1053A00052464944E8A7A3E994810000A082424202
:1053B000008042420000002000B587B00020069027
:1053C000059001210807FEF77BF80120FEF760F841
:1053D0000120FEF729F900BF4120FEF705F900285A
:1053E000FAD04FF48070FEF73BF97F200690FF2043
:1053F00005900120FEF72EF9FEF750FB0020FEF786
:105400005DFAB0F5586F2DD010208DF804003420CF
:105410008DF8050000208DF8060001A90120FEF797
:10542000C1FA10208DF801008DF8020023208DF8BC
:10543000030003208DF8000069460120FEF74EFAB4
:10544000FF2005907F200690069803900598049011
:105450000020029002A8FEF7FFF94FF458610020E7
:10546000FEF74CFB07B000BD10B586B0044605A999
:105470000120FEF7C9F904A90120FEF77FF99DF884
:1054800016009DF815109DF814209DF81230CDE9F6
:105490000032CDE902109DF811309DF8132003A1D0
:1054A0002046FAF757FF06B010BD000025782F25DB
:1054B000782F25782025783A25783A25780000003D
:1054C00070B50646002400BF28E00020154908609A
:1054D0000120FFF743FBC4F1070101208840304061
:1054E00018B101201049086002E000200E49086050
:1054F00001200C490860FFF731FB0C48D0F820026E
:10550000012805D1C4F1070188402843C5B204E051
:10551000C4F10701012088408543641C082CD4DBBA
:10552000284670BD9C82414298024142000041429F
:105530001CB501214120FDF7B3FF01208DF80400C7
:1055400000208DF806004FF40070009001208DF8C7
:1055500007008DF8050069460B48FDF716F8002096
:105560008DF804008DF806004FF480700090012043
:105570008DF807008DF8050069460448FDF705F829
:105580000020034908601CBD0018024000000240D2
:10559000A40243427FB505460C4601210846FDF7AB
:1055A0008FFF681E0190601E80B2ADF800000020E1
:1055B000ADF80800ADF8020069464FF08040FEF7F4
:1055C000DFFC012211469007FEF7CEFC012188077F
:1055D000FEF7ADFC1C208DF80C0000208DF80D00AE
:1055E00001208DF80E008DF80F0003A8FDF74EFA8C
:1055F0007FBD00007FB505460C4601211020FDF758
:105600005FFF681E0190601E80B2ADF800000020B0
:10561000ADF80800ADF8020069460D48FEF7B0FC91
:10562000012211460A48FEF79FFC01210848FEF7B7
:105630007EFC36208DF80C0000208DF80D00012036
:105640008DF80E008DF80F0003A8FDF71FFA7FBD3F
:10565000001000407FB505460C4601212020FDF7D3
:105660002FFF681E0190601E80B2ADF80000002080
:10567000ADF80800ADF8020069460D48FEF780FC61
:10568000012211460A48FEF76FFC01210848FEF787
:105690004EFC37208DF80C0000208DF80D00012005
:1056A0008DF80E008DF80F0003A8FDF7EFF97FBD10
:1056B0000014004010B588B0044601210846FDF7EB
:1056C000EFFE01211020FDF70BFF072209212348DF
:1056D000FCF7A3FF07220A212048FCF79EFF4FF4A6
:1056E000C060069002208DF81C0000208DF81E007E
:1056F00001208DF81F0003208DF81D0006A9174812
:10570000FCF743FF02940020ADF80C00ADF80E004A
:10571000ADF810000C20ADF812000020ADF8140018
:1057200002A90F48FEF786FD012240F225510C48E0
:10573000FEF75AFD25208DF8040000208DF80500A5
:1057400001208DF806008DF8070001A8FDF79EF9ED
:1057500001210348FEF705FD08B010BD000002401E
:105760000010014010B588B0044601210846FDF73D
:1057700097FE01214804FDF7A3FE072202212C48D1
:10578000FCF74BFF072203212948FCF746FF0C20BA
:10579000019002208DF8080003208DF809000020F8
:1057A0008DF80A0001208DF80B0001A92048FCF7B4
:1057B000ECFE4FF40070019000208DF808000220EC
:1057C0008DF8090000208DF80A0001208DF80B00EB
:1057D00001A91848FCF7D9FE04940020ADF8140084
:1057E000ADF81600ADF81800ADF81C000C20ADF8AF
:1057F0001A0004A91048FEF71DFD012240F22551B0
:105800000D48FEF7F1FC26208DF80C0000208DF8E5
:105810000D008DF80E0001208DF80F0003A8FDF794
:1058200035F901210448FEF79CFC08B010BD0000CA
:1058300000000240000402400044004010B588B05F
:10584000044601210220FDF72BFE01218804FDF70B
:1058500037FE07220A212A48FCF7DFFE07220B2128
:105860002748FCF7DAFE4FF44060069002208DF8DE
:105870001C0000208DF81E0001208DF81F00032061
:105880008DF81D0006A91E48FCF77FFE029400203B
:10589000ADF80C00ADF80E00ADF810000C20ADF81E
:1058A00012000020ADF8140002A91648FEF7C2FC51
:1058B000012240F225511348FEF796FC27208DF86F
:1058C000040000208DF8050001208DF806008DF8F9
:1058D000070001A8FDF7DAF801210A48FEF741FCAC
:1058E00042F2D0014FF47A70FFF784FE002006499F
:1058F000088000210548FEF71AFB08B010BD000023
:1059000000040240004800407800002000100040E1
:105910003EB50020009001900290FDF7FDF828A30D
:10592000082200210846FDF70CFA26A308221021C0
:105930000020FDF706FA24A3082220210020FDF70D
:1059400000FA22A3082230210020FDF7FAF920A254
:1059500000211020FDF762FA21A210210846FDF770
:105960005DFA23A220211020FDF758FA24A230214D
:105970001020FDF753FAFDF733FBFDF734F9012151
:105980008807FEF7D4FA6846FFF750F96846FAF739
:1059900091FE0446062C11D2DFE804F0100306093C
:1059A0000C0FFEF71BFD09E0FFF740F806E0FFF7DC
:1059B00019F803E0FEF714FF00E000BF00BF3EBD92
:1059C000310000003200000033000000340000000D
:1059D000E38081E5BD95E68C87E7BAB90000000059
:1059E000E38081E588A0E999A4E68C87E7BAB9004D
:1059F000E38081E6B885E7A9BAE68C87E7BAB90003
:105A0000E38081E4BFAEE694B9E5AF86E7A081000C
:105A100010B500290AD00878002807D00548784436
:105A2000FAF796FE002801D0002010BD0248784405
:105A300010BD00000E1700000617000010B5002969
:105A40000AD00878002807D005487844FAF780FE85
:105A5000002801D0002010BD0248784410BD00008D
:105A6000F2170000EA1700004FF04070E1EE100A54
:105A70007047FBF7D3B9FBF707BB0000833215D89B
:105A8000C3612AD8000000000000000000000000F0
:105A900000000000000000F80000000000000033DB
:105AA0003000000000160E00160E0000000000007E
:105AB0000000000040C07840C0784000043F04046B
:105AC0003F040400007088FC08300000001820FF2C
:105AD000211E0000F008F000E018000000211C0367
